{
  "_format": "hh-sol-artifact-1",
  "contractName": "TaskManager",
  "sourceName": "contracts/TaskManager.sol",
  "abi": [
    {
      "anonymous": false,
      "inputs": [
        {
          "indexed": false,
          "internalType": "uint256",
          "name": "id",
          "type": "uint256"
        }
      ],
      "name": "TaskCompleted",
      "type": "event"
    },
    {
      "anonymous": false,
      "inputs": [
        {
          "indexed": false,
          "internalType": "uint256",
          "name": "id",
          "type": "uint256"
        },
        {
          "indexed": false,
          "internalType": "string",
          "name": "description",
          "type": "string"
        },
        {
          "indexed": false,
          "internalType": "address",
          "name": "owner",
          "type": "address"
        }
      ],
      "name": "TaskCreated",
      "type": "event"
    },
    {
      "inputs": [
        {
          "internalType": "uint256",
          "name": "_id",
          "type": "uint256"
        }
      ],
      "name": "completeTask",
      "outputs": [],
      "stateMutability": "nonpayable",
      "type": "function"
    },
    {
      "inputs": [
        {
          "internalType": "string",
          "name": "_description",
          "type": "string"
        }
      ],
      "name": "createTask",
      "outputs": [],
      "stateMutability": "nonpayable",
      "type": "function"
    },
    {
      "inputs": [],
      "name": "taskCount",
      "outputs": [
        {
          "internalType": "uint256",
          "name": "",
          "type": "uint256"
        }
      ],
      "stateMutability": "view",
      "type": "function"
    },
    {
      "inputs": [
        {
          "internalType": "uint256",
          "name": "",
          "type": "uint256"
        }
      ],
      "name": "tasks",
      "outputs": [
        {
          "internalType": "uint256",
          "name": "id",
          "type": "uint256"
        },
        {
          "internalType": "string",
          "name": "description",
          "type": "string"
        },
        {
          "internalType": "address",
          "name": "owner",
          "type": "address"
        },
        {
          "internalType": "bool",
          "name": "completed",
          "type": "bool"
        }
      ],
      "stateMutability": "view",
      "type": "function"
    }
  ],
  "bytecode": "0x60806040526000805534801561001457600080fd5b50610b17806100246000396000f3fe608060405234801561001057600080fd5b506004361061004c5760003560e01c8063111002aa146100515780638d9776721461006d578063b6cb58a5146100a0578063e1e29558146100be575b600080fd5b61006b600480360381019061006691906106af565b6100da565b005b610087600480360381019061008291906106f0565b610212565b604051610097949392919061085e565b60405180910390f35b6100a86102f7565b6040516100b59190610805565b60405180910390f35b6100d860048036038101906100d391906106f0565b6102fd565b005b6000808154809291906100ec906109e3565b9190505550604051806080016040528060005481526020018281526020013373ffffffffffffffffffffffffffffffffffffffff16815260200160001515815250600160008054815260200190815260200160002060008201518160000155602082015181600101908051906020019061016792919061058f565b5060408201518160020160006101000a81548173ffffffffffffffffffffffffffffffffffffffff021916908373ffffffffffffffffffffffffffffffffffffffff16021790555060608201518160020160146101000a81548160ff0219169083151502179055509050507fdc691e972cb25fd6e968744b5a6416d42a052ac1305e3b7ed6777b621304b7f2600054823360405161020793929190610820565b60405180910390a150565b600160205280600052604060002060009150905080600001549080600101805461023b906109b1565b80601f0160208091040260200160405190810160405280929190818152602001828054610267906109b1565b80156102b45780601f10610289576101008083540402835291602001916102b4565b820191906000526020600020905b81548152906001019060200180831161029757829003601f168201915b5050505050908060020160009054906101000a900473ffffffffffffffffffffffffffffffffffffffff16908060020160149054906101000a900460ff16905084565b60005481565b60006001600083815260200190815260200160002060405180608001604052908160008201548152602001600182018054610337906109b1565b80601f0160208091040260200160405190810160405280929190818152602001828054610363906109b1565b80156103b05780601f10610385576101008083540402835291602001916103b0565b820191906000526020600020905b81548152906001019060200180831161039357829003601f168201915b505050505081526020016002820160009054906101000a900473ffffffffffffffffffffffffffffffffffffffff1673ffffffffffffffffffffffffffffffffffffffff1673ffffffffffffffffffffffffffffffffffffffff1681526020016002820160149054906101000a900460ff16151515158152505090503373ffffffffffffffffffffffffffffffffffffffff16816040015173ffffffffffffffffffffffffffffffffffffffff161461049e576040517f08c379a0000000000000000000000000000000000000000000000000000000008152600401610495906107e5565b60405180910390fd5b600181606001901515908115158152505080600160008481526020019081526020016000206000820151816000015560208201518160010190805190602001906104e992919061058f565b5060408201518160020160006101000a81548173ffffffffffffffffffffffffffffffffffffffff021916908373ffffffffffffffffffffffffffffffffffffffff16021790555060608201518160020160146101000a81548160ff0219169083151502179055509050507fc1fa7142cfb933d0855114a3bffde296944c30b727f297c14d0db4d553d3a5c7826040516105839190610805565b60405180910390a15050565b82805461059b906109b1565b90600052602060002090601f0160209004810192826105bd5760008555610604565b82601f106105d657805160ff1916838001178555610604565b82800160010185558215610604579182015b828111156106035782518255916020019190600101906105e8565b5b5090506106119190610615565b5090565b5b8082111561062e576000816000905550600101610616565b5090565b6000610645610640846108db565b6108aa565b90508281526020810184848401111561065d57600080fd5b61066884828561096f565b509392505050565b600082601f83011261068157600080fd5b8135610691848260208601610632565b91505092915050565b6000813590506106a981610aca565b92915050565b6000602082840312156106c157600080fd5b600082013567ffffffffffffffff8111156106db57600080fd5b6106e784828501610670565b91505092915050565b60006020828403121561070257600080fd5b60006107108482850161069a565b91505092915050565b61072281610927565b82525050565b61073181610939565b82525050565b60006107428261090b565b61074c8185610916565b935061075c81856020860161097e565b61076581610ab9565b840191505092915050565b600061077d602283610916565b91507f596f7520617265206e6f7420746865206f776e6572206f66207468697320746160008301527f736b0000000000000000000000000000000000000000000000000000000000006020830152604082019050919050565b6107df81610965565b82525050565b600060208201905081810360008301526107fe81610770565b9050919050565b600060208201905061081a60008301846107d6565b92915050565b600060608201905061083560008301866107d6565b81810360208301526108478185610737565b90506108566040830184610719565b949350505050565b600060808201905061087360008301876107d6565b81810360208301526108858186610737565b90506108946040830185610719565b6108a16060830184610728565b95945050505050565b6000604051905081810181811067ffffffffffffffff821117156108d1576108d0610a8a565b5b8060405250919050565b600067ffffffffffffffff8211156108f6576108f5610a8a565b5b601f19601f8301169050602081019050919050565b600081519050919050565b600082825260208201905092915050565b600061093282610945565b9050919050565b60008115159050919050565b600073ffffffffffffffffffffffffffffffffffffffff82169050919050565b6000819050919050565b82818337600083830152505050565b60005b8381101561099c578082015181840152602081019050610981565b838111156109ab576000848401525b50505050565b600060028204905060018216806109c957607f821691505b602082108114156109dd576109dc610a5b565b5b50919050565b60006109ee82610965565b91507fffffffffffffffffffffffffffffffffffffffffffffffffffffffffffffffff821415610a2157610a20610a2c565b5b600182019050919050565b7f4e487b7100000000000000000000000000000000000000000000000000000000600052601160045260246000fd5b7f4e487b7100000000000000000000000000000000000000000000000000000000600052602260045260246000fd5b7f4e487b7100000000000000000000000000000000000000000000000000000000600052604160045260246000fd5b6000601f19601f8301169050919050565b610ad381610965565b8114610ade57600080fd5b5056fea2646970667358221220cbf0426fee281b30bd9e1662255ed92b5d97865feb708e247bff77b2d38273bb64736f6c63430008000033",
  "linkReferences": {},
  "deployedLinkReferences": {}
}